:020000040800F2
:10000000A009002439030008795700088952000824
:1000100071570008C1070008E167000800000000F0
:10002000000000000000000000000000F959000876
:10003000510C000800000000B1570008315A0008B8
:100040005303000853030008530300085303000838
:100050005303000853030008530300085303000828
:10006000590C000853030008530300085303000809
:100070005303000853030008C9070008530300088E
:1000800053030008530300085303000853030008F8
:1000900053030008530300085303000853030008E8
:1000A00053030008530300085303000853030008D8
:1000B00053030008530300085303000853030008C8
:1000C00053030008530300085303000853030008B8
:1000D0005303000853030008530300087965000820
:1000E00053030008530300080000000053030008F6
:1000F0005303000853030008530300085303000888
:100100005303000853030008530300085303000877
:100110005303000853030008E95B00085303000879
:100120003109000853030008530300085303000873
:100130005303000853030008530300085303000847
:1001400000000000000000000000000000000000AF
:100150005303000853030008530300085303000827
:100160005303000853030008530300085303000817
:100170005303000853030008530300080000000065
:1001800053030008530300085303000853030008F7
:1001900053030008530300085303000853030008E7
:1001A00053030008530300085303000853030008D7
:1001B00053030008530300085303000853030008C7
:1001C00053030008530300085303000853030008B7
:1001D00053030008530300085303000853030008A7
:1001E0005303000853030008530300085303000897
:1001F0005303000853030008530300085303000887
:100200005303000853030008530300085303000876
:100210005303000853030008530300085303000866
:1002200053030008530300085303000800000000B4
:1002300053030008530300080000000031050008C4
:100240005303000853030008530300085303000836
:100250005303000853030008530300085303000826
:100260005303000853030008530300085303000816
:100270005303000853030008530300080000000064
:100280005303000853030008530300080000000054
:10029000000000005303000800F002F800F03CF8F2
:1002A0000AA090E8000C82448344AAF10107DA45D1
:1002B00001D100F031F8AFF2090EBAE80F0013F0E7
:1002C000010F18BFFB1A43F0010318470067000035
:1002D00020670000103A24BF78C878C1FAD85207C6
:1002E00024BF30C830C144BF04680C6070470000B0
:1002F0000023002400250026103A28BF78C1FBD82F
:10030000520728BF30C148BF0B6070471FB506F0C9
:1003100034FB1FBD10B510BD00F0D0F81146FFF73B
:10032000F5FF06F09DFA00F0EEF803B4FFF7F2FFD8
:1003300003BC00F0F5F80000094880470948004771
:10034000FEE7FEE7FEE7FEE7FEE7FEE7FEE7FEE785
:10035000FEE7FEE704480549054A064B70470000E2
:10036000095B000899020008A0030024A0090024EA
:10037000A0050024A005002453EA020C00F06980C7
:100380002DE9F04B4FF00006002B1FBFB3FA83F5A9
:1003900003FA05F424FA05F65E4012BF1643B2FADA
:1003A00082F502FA05F4C5F120051EBF22FA05FC0C
:1003B00044EA0C04203556EA044C4FEA144418BFB2
:1003C000641C4FF000084FF00009904271EB030CE1
:1003D00039D3002919BFB1FA81F701FA07F6B0FA4B
:1003E00080F700FA07F6C7F120071EBF20FA07FCC6
:1003F00046EA0C062037B6FBF4FCA7EB0507103FD6
:1004000007F01F0BCBF120062CFA06F60CFA0BFBBB
:1004100044BFB3460026202FA4BF5E464FF0000B1A
:100420005BEA060C08BF4FF0010B19EB0B0948EB18
:100430000608ABFB027C06FB02CC0BFB03CCC01B0B
:1004400071EB0C01C1E70B46024641464846BDE848
:10045000F08B13B5084318BF4FF0FF300146AFF3E0
:100460000080BDE81C4070474FF0000200B5134605
:1004700094469646203922BFA0E80C50A0E80C50C4
:10048000B1F12001BFF4F7AF090728BFA0E80C5075
:1004900048BF0CC05DF804EB890028BF40F8042B6E
:1004A00008BF704748BF20F8022B11F0804F18BFDB
:1004B00000F8012B7047704770477047754600F091
:1004C0002BF8AE4605006946534620F007008546E6
:1004D00018B020B5FFF73EFFBDE820404FF0000602
:1004E0004FF000074FF000084FF0000BAC46ACE8AF
:1004F000C009ACE8C009ACE8C009ACE8C00921F00B
:1005000007018D46704710B50446AFF300802046C2
:10051000BDE81040FFF709BF0048704718000024ED
:1005200001491820ABBEFEE726000200704700001C
:1005300010B540F2883EC2F2004EDEF800100029ED
:1005400066D0DEF80010012946F20001C5F602016E
:1005500059D140F2144240F29033C4F20202C2F286
:1005600000431B68106883424DD141F2000040F205
:10057000080CC4F20000C2F2004C40F27E34036862
:10058000C2F2004423F00103036052F8040C20F08F
:10059000010042F8040CDCF800301068181A2080C2
:1005A00040F27804C2F2004424F813005820C4F248
:1005B00002004FF0FF33C0F8B03342F8083C40F877
:1005C000503C40F84C3C0223DCF8002003EB420294
:1005D000426044F60002C4F20002146844F00104D0
:1005E0001460046844F010040460046844F00104DA
:1005F0000460906840F080009060086840F010004F
:100600000860CEF80030086840F00400086010BDB3
:1006100040F28C31C2F200410A78002A91D040F2B7
:100620007832C2F200421368032B1DD140F2080158
:1006300040F21443C2F20041C4F2020340F20C0C37
:1006400009681A68891A40F28632C2F20042C2F280
:10065000004C11801968BCF900209142196809D931
:10066000BCF900208A1A0CE01368013313600022E1
:100670000A7066E740F20E02C2F20042B2F90020B0
:100680000A4440F29031C2F200410A600A6812B98D
:100690000A6801320A600A68652A01DB63220A607F
:1006A0000121CEF800104CE7B0B50446006842F2D4
:1006B000001140F48070C4F20201884204D142F279
:1006C0000830C4F2020003E046F20830C5F602002A
:1006D000006810F4403F10D003F08EFD61680546BD
:1006E000B1F5803F05D0B1F5403F21D0B1F5003FD5
:1006F0001FD1080CB5FBF0F51BE04FF4002002F011
:100700001FFE61680546A1F580224FEAB2420A2A1F
:100710000FD8DFE802F0060606060606494B4D4FE5
:1007200051006FF0010000EA5140B5FBF0F500E028
:10073000AD0802F069FB41F2030188420DD8206840
:1007400042F60151C0F231118D4281682CBF41F453
:10075000807121F480718160B0BD4BF62140C0F200
:10076000BE00854205D82068816821F4407181600F
:10077000B0BD47F64100C0F27D10854203D8206825
:100780000122816808E020684FF28101C0F2FA215D
:100790008D42816804D8022262F309218160B0BDD4
:1007A00041F440718160B0BD2D09C2E76D09C0E719
:1007B000AD09BEE7ED09BCE72D0ABAE7000000006D
:1007C000FEE700000000000070B544F60800582461
:1007D000C4F20000C4F202044FF0FF36016821F0B9
:1007E00080010160206820F001002060206820F076
:1007F0001000206040F2202044F8506CC2F200400B
:1008000044F84C6C01F094F940F278310020C2F2C7
:10081000004140F20802C2F2004240F29433086004
:1008200040F28831C2F20041C2F20043086040F257
:100830007E31C2F20041088040F28631C2F20041AE
:10084000088040F27C31C2F20041088040F28431DD
:10085000C2F2004118600880116801290CDB1168A0
:1008600040F27802C2F2004200250023013322F850
:1008700015009DB2A942F9DC40F21040C4F202001A
:100880004160C4F8B06340F8046C016841F00101B4
:10089000016000BF0168C907FCD0D4F8A813C907DC
:1008A00011D0016821F00101016000BF0168C90792
:1008B000FCD14FF0FF31C4F8B01340F8041C0168BC
:1008C00041F00101016046F2080141F20000C5F665
:1008D0000201C4F2000051F8042C42F0040241F875
:1008E000042C0122C26251F8082C42F0100241F897
:1008F000082C0A68520703D40A6842F004020A600E
:1009000040F61001C5F602010A685207FCD440F215
:1009100042110022C2F200410A7040F28C31C2F250
:1009200000410A70016841F00101016070BD0000E2
:1009300080B540F2A810C2F2004001F0F9F880BD85
:1009400040F20F420168C4F20202914210DC6F22B1
:10095000C4F20202914220DC3F22C4F20202914220
:1009600036DC1022C4F20202914254D028224EE01A
:1009700040F26F42C4F2020291421ADC40F23F425E
:10098000C4F2020291422ADC40F21042C4F2020296
:10099000914240D040F2284239E09F22C4F2020244
:1009A000914225DC7022C4F20202914233D08822A7
:1009B0002DE040F29F42C4F2020291421FDC40F25D
:1009C0007042C4F20202914225D040F288421EE0F9
:1009D0004022C4F2020291421DD0582217E040F298
:1009E0004042C4F20202914215D040F258420EE059
:1009F000A022C4F2020291420DD0B82207E040F2D8
:100A0000B842C4F20202914205D040F2A042C4F2C0
:100A1000020291421AD1D0F800C06FF00F024AF6DC
:100A2000AB2352FA8CF2CAF6AA23A2FB033109A324
:100A30005F2AC1F302115B5C40F2FF312CEA010135
:100A4000C36588BF0431816508467047016821F09D
:100A5000FF01F8E70006101600061016000000005F
:100A600010B545F257420168C5F6020291420EDC0C
:100A700045F22F42C5F60202914217DC45F20842C8
:100A8000C5F60202914226D045F21C421FE045F213
:100A90007F42C5F60202914211DC45F25842C5F68A
:100AA0000202914217D045F26C4210E045F230420A
:100AB000C5F6020291420ED045F2444207E045F2EB
:100AC0009442C5F60202914205D045F28042C5F635
:100AD0000202914219D101784CF6CD42CCF6CC42BB
:100AE00045F600030839C5F60203A1FB021203F123
:100AF0008001120903EB820302F01F020366012347
:100B0000416603FA02F1816610BD02784AF6AB2312
:100B1000CAF6AA234FF0080E103AA2FB032340F2B4
:100B20000F42C4F202024FEA131C914202F1AA04DE
:100B3000624688BF0EEB131240F60003A142C4F2D6
:100B4000020303F1800128BF6246D3E700000000E2
:100B500010B50279511E072988BF10BD45F2574CC8
:100B600045F6FC0E0368C5F6020CC5F6020E634599
:100B70000EF1440C0EDC45F22F44C5F60204A342EC
:100B800017DC45F20844C5F60204A34226D045F21C
:100B90001C441FE045F27F44C5F60204A34211DC69
:100BA00045F25844C5F60204A34217D045F26C44FE
:100BB00010E045F23044C5F60204A3420ED045F2DF
:100BC000444407E045F28044C5F60204A34205D040
:100BD00045F29444C5F60204A34209D10EEB820209
:100BE000C2660122C0F870C002FA01F1416710BD6F
:100BF00040F6FC0EC4F2020E0EF1440CEEE70000CB
:100C00008169B1F5005F07D079B9816A022912D0F4
:100C1000012916D079B112E0816A03290FD8DFE8E3
:100C200001F0020A021001207047816A03293CBFCB
:100C30000120704703D1C06AC0F3006070470020F4
:100C40007047C06AA0F1C070B0FA80F040097047E8
:100C5000704700000000000080B540F28C30012198
:100C6000C2F200400170042001F0E6FF80BD0000E8
:100C7000EFF3108072B600BFFEE700000000000036
:100C80002DE9F04782B000220192044690F850000E
:100C9000012803D1022002B0BDE8F08720680D468C
:100CA000012684F8506004F01BFB28B1606D40F011
:100CB000200060650120DEE02A6892FAA2F0B0FA16
:100CC00080F3100308BF930E2068696803F01F03C8
:100CD00006FA03F3C7693B43C36104F005FB2068D0
:100CE00004F0FEFA0646206804F0EAFA304368D1C0
:100CF00020682968AA6804F00FFB41F20000C5F6DD
:100D00000040006800F07040B0F1805F06D12068BC
:100D10006A690E21C06801EA50030CE02068C168CE
:100D20006A69C068C9064FEA500002D400F00E0399
:100D300001E000F0080329692068042928D1016E28
:100D40002A6801F0F841B1EB826F4FEA826103D16A
:100D5000026E22F000420266426E02F0F8428A42BF
:100D600003D1426E22F000424266826E02F0F842E7
:100D70008A4203D1826E22F000428266C26E02F085
:100D8000F8428A421DD1C16E21F00041C16618E0CF
:100D900002FA03F32A6804F007FB687E0138B0FA10
:100DA00080F120684A092969D20704F009FB287EEE
:100DB0000138B0FA80F120684A092969D20204F0AA
:100DC000E7FA206804F084FA08B1002053E02068B4
:100DD0002968EA6804F0B4FA0021E868C4F2FF71F7
:100DE000884243D14FF6FF702968C0F20F004FF0E0
:100DF000806711EA000C91FAA1F0B0FA80F2134674
:100E000008BF8B0E20685E1C07EB836306F01E0E86
:100E100006F01F060127BEF1090F03F0F84307FA99
:100E200006F60DD8BCF1000F08BF8A0E511C43EA2C
:100E3000060201F01F0101EB410142EA015112E0FB
:100E4000BCF1000F08BF8A0E511C002201F01F01E7
:100E5000CFF6206201EB410102EB015146EA0302A9
:100E6000114341F00071AA6804F056FA2868B0F105
:100E7000FF3F06DD0020002184F8501002B0BDE8DD
:100E8000F08746F2000842F20007C5F60208C4F2F5
:100E9000020708F54079216807F5807607F540726A
:100EA0004846B14208BF1046B94208BF104604F098
:100EB00003FA216842F2001241F48071C4F2020286
:100EC0009142824608D1384604F002FA074630467D
:100ED00004F0FEF9384302E0404604F0F9F9002836
:100EE0007FF4E4AE5FEA0A20296809D40020CCF63A
:100EF0008430814204D1206840451DD00020BAE7EB
:100F00005FEACA1009D40020CCF25270814204D1A9
:100F10002068404531D00020ADE75FEA4A204FF01D
:100F20000000A8D40022CCF6B8729142A3D1206868
:100F3000404527D000209EE74AF40001484604F0CF
:100F40001FFA40F2000042F66351C2F20040C0F2C4
:100F50003E5100688009A0FB01018809022101EBD4
:100F600040000190019858B1019801380190019812
:100F700000284FF00000F7D17DE74AF0807103E0D0
:100F8000002078E74AF48001484604F0F9F900208F
:100F900071E7000000000000F0B581B004460028B1
:100FA0004FF00000009019D0606D30B9204600F07D
:100FB0000BF90020A06584F85000206804F084F943
:100FC00010B1206804F064F9206804F085F938B1A4
:100FD000206804F081F9E0B1002523E00125E3E079
:100FE000206804F05DF940F2000042F66351C2F25D
:100FF0000040C0F23E5100688009A0FB01010120C1
:1010000000EB9110009000980028E1D00098013882
:10101000F8E7606D012540F010006065A06D40F0BC
:101020000100A065206804F05BF9616D01F010011A
:101030000843606D03D040F010000125B3E020F4B8
:10104000817002306065206804F042F958BB206866
:1010500042F2001140F48070C4F2020142F2000634
:101060008842C4F2020640F0A280304604F030F913
:10107000074606F5807004F02BF9384398B906F559
:10108000807006F54072216846F20003C5F602033F
:101090008142104618BF03F54070B142616808BF35
:1010A000104604F065F901F0AFFE41F204018842F8
:1010B0000CD3A068102809D1607D216B227F41EA02
:1010C000403040EA024040F01C0108E0607D216BA6
:1010D000227F41EA4030A168084340EA0241207F74
:1010E000012806D1206A0022CFF6FE7202EB4040B2
:1010F0000143606A28B100F47870A26A084340EAAC
:10110000020120684CF20303CFF6F073C2681A4064
:101110001143C16004F0E4F80646206804F0D0F8FA
:10112000304331D1217D2068E26A44F20307C3686D
:1011300042EA813123EA07021143C16094F8381072
:101140000129016914D14FF61E020027CFF6004293
:10115000CFF6FF771140D4E90F231943636C07EBF7
:1011600002421143A26C1943114341F0010101E015
:1011700021F0010101610169626B21F070411143AD
:1011800001612046FFF790FA2068E1680129026BAF
:1011900022F00F0102D1A269013A1143016301213A
:1011A000606D61F301006065284601B0F0BD46F254
:1011B0000000C5F6020004F08BF800287FF473AF3E
:1011C0005DE700000000000070B5B0B0044644F2D6
:1011D000E04501A8BC21C5F60205FFF745F92068E6
:1011E00005F5D951884201D030B070BD4FF40020D0
:1011F0000190012002901220039002200690CDE978
:101200000400C0200790202008904FF4C05009909F
:1012100001A80026299602F013FA08B1FFF728FD6D
:1012200028684FF0006140F080702860286800F066
:10123000807000900098286840F0040028602868BA
:1012400000F00400009000984FF0006003F0A0FB55
:1012500040F2A81540F21040C2F20045C4F202006C
:1012600028607320C5E901064FF4806028614FF4BF
:10127000006068614FF40050EE60C5E906064FF467
:101280004030C5E90806284601F022FA08B1FFF708
:10129000EFFC7F2000210022E564AC6301F048FEF2
:1012A0007F2001F041FE30B070BD00000000000062
:1012B0002DE9F041044601F0AFFD04B3054694F872
:1012C000350002281ED140F20F472068C4F2020701
:1012D00040F26F48B842C4F202081BDC6F21C4F22E
:1012E0000201884227DC3F21C4F2020188423DDC32
:1012F0001021C4F2020188425CD0282155E001206F
:10130000BDE8F08180206065002084F83400012071
:10131000BDE8F08140451ADC40F23F41C4F20201D1
:1013200088422ADC40F21041C4F20201884241D0D6
:1013300040F2284139E09F21C4F20201884225DCB5
:101340007021C4F20201884234D088212DE040F29D
:101350009F41C4F2020188421FDC40F27041C4F296
:101360000201884226D040F288411EE04021C4F2AA
:10137000020188421ED0582117E040F24041C4F2D9
:101380000201884216D040F258410EE0A021C4F27A
:10139000020188420ED0B82107E040F2B841C4F201
:1013A0000201884206D040F2A041C4F20201884204
:1013B00040F0EE812668316821F01E02314641F886
:1013C000142B6FF080020B68404502EA03020A60AA
:1013D00019DC9F21C4F20201884231DC5721C4F29A
:1013E0000201884256DC1021C4F20201884200F05A
:1013F00091802821C4F20201884200F08B804021B4
:10140000C4F2020184E045F22F41C5F60201884290
:101410002BDC40F2B741C4F20201884248DC40F2C2
:101420007041C4F20201884274D040F28841C4F293
:10143000020188426ED040F2A041C4F2020167E08E
:1014400040F22741C4F20201884240DCA021C4F2EC
:10145000020188425ED0B821C4F20201884259D00C
:1014600040F21041C4F2020152E045F26B41C5F670
:10147000020188423CDC45F23041C5F60201884257
:1014800048D045F24441C5F60201884242D045F2B7
:1014900058413BE05821C4F2020188423AD0702101
:1014A000C4F20201884235D08821C4F202012FE043
:1014B00040F2B841C4F2020188422BD045F2084103
:1014C000C5F60201884225D045F21C411EE040F2DB
:1014D0002841C4F2020188421CD040F24041C4F2CB
:1014E0000201884216D040F25841C4F202010FE0D6
:1014F00045F26C41C5F6020188420BD045F2944199
:10150000C5F60201884205D045F28041C5F60201C8
:10151000884269D1216EB8420A6822F480720A605A
:1015200010DC6F21C4F2020188421CDC3F21C4F2AE
:101530000201884232DC1021C4F20201884252D0FA
:1015400028214AE040451ADC40F23F41C4F2020142
:1015500088422ADC40F21041C4F20201884242D0A3
:1015600040F2284139E09F21C4F20201884225DC83
:101570007021C4F20201884235D088212DE040F26A
:101580009F41C4F2020188421FDC40F27041C4F264
:101590000201884227D040F288411EE04021C4F277
:1015A000020188421FD0582117E040F24041C4F2A6
:1015B0000201884217D040F258410EE0A021C4F247
:1015C000020188420FD0B82107E040F2B841C4F2CE
:1015D0000201884207D040F2A041C4F202018842D1
:1015E00008BF206800E02068016821F00101016067
:1015F0003068C0070FD001F00FFC401B0628F7D35E
:1016000020206065002084F83400032084F8350031
:101610000120BDE8F0812068B84210DC6F21C4F2DF
:10162000020188421CDC3F21C4F20201884232DC04
:101630001021C4F20201884250D028214AE04045DE
:101640001ADC40F23F41C4F2020188422ADC40F237
:101650001041C4F20201884240D040F2284139E0F2
:101660009F21C4F20201884225DC7021C4F20201EC
:10167000884233D088212DE040F29F41C4F202011C
:1016800088421FDC40F27041C4F20201884225D03A
:1016900040F288411EE04021C4F2020188421DD080
:1016A000582117E040F24041C4F20201884215D0AF
:1016B00040F258410EE0A021C4F2020188420DD050
:1016C000B82107E040F2B841C4F20201884205D0D7
:1016D00040F2A041C4F2020188425ED1D4E9161260
:1016E00002F01F023F2303FA02F28A6040455EDCEB
:1016F0009F21C4F20201884214DC5721C4F2020186
:10170000884226DC1021C4F20201884200F0A28047
:101710002821C4F20201884200F09C804021C4F2DA
:10172000020195E040F22741C4F2020188421EDC2A
:10173000A021C4F20201884200F08C80B821C4F2DA
:101740000201884200F0868040F21041C4F202019A
:101750007EE05821C4F2020188427BD07021C4F29D
:101760000201884276D08821C4F2020170E040F282
:101770002841C4F2020188426CD040F24041C4F2D8
:101780000201884266D040F25841C4F202015FE093
:1017900021686FF00E020E4615E6D4E9161202F02B
:1017A0001F02012303FA02F24A604045A0DD45F220
:1017B0002F41C5F60201884216DC40F2B741C4F25F
:1017C0000201884225DC40F27041C4F202018842E5
:1017D00040D040F28841C4F2020188423AD040F23F
:1017E000A041C4F2020133E045F26B41C5F60201AB
:1017F00088421DDC45F23041C5F60201884229D0FD
:1018000045F24441C5F60201884223D045F25841D1
:101810001CE040F2B841C4F2020188421AD045F2FD
:101820000841C5F60201884214D045F21C410DE082
:1018300045F26C41C5F6020188420BD045F2944155
:10184000C5F60201884205D045F28041C5F6020185
:1018500088420BD1616EA26EE06E4A6030B10168C1
:1018600021F480710160D4E91C014160002084F8FA
:101870003400012184F83510BDE8F081000000003B
:1018800080B5D8B190F83510022919D140F20F4235
:101890000168C4F20202914216DC6F23C4F2020313
:1018A000994226DC3F23C4F2020399423CDC102318
:1018B000C4F2020399425AD0282354E0012080BD8B
:1018C00080214165012080BD40F26F43C4F20203D4
:1018D00099421ADC40F23F43C4F2020399422ADCE7
:1018E00040F21043C4F20203994240D040F2284330
:1018F00039E09F23C4F20203994225DC7023C4F22D
:101900000203994233D088232DE040F29F43C4F272
:10191000020399421FDC40F27043C4F20203994271
:1019200025D040F288431EE04023C4F202039942CE
:101930001DD0582317E040F24043C4F202039942FD
:1019400015D040F258430EE0A023C4F2020399429E
:101950000DD0B82307E040F2B843C4F20203994225
:1019600005D040F2A043C4F20203994270D19142E3
:101970004FF0040280F8352010DC6F22C4F202021E
:10198000914220DC3F22C4F20202914236DC102256
:10199000C4F20202914254D028224EE040F26F423B
:1019A000C4F2020291421ADC40F23F42C4F2020247
:1019B00091422ADC40F21042C4F20202914240D02D
:1019C00040F2284239E09F22C4F20202914225DC13
:1019D0007022C4F20202914233D088222DE040F2FC
:1019E0009F42C4F2020291421FDC40F27042C4F2F4
:1019F0000202914225D040F288421EE04022C4F209
:101A0000020291421DD0582217E040F24042C4F237
:101A10000202914215D040F258420EE0A022C4F2D8
:101A2000020291420DD0B82207E040F2B842C4F25F
:101A30000202914205D040F2A042C4F20202914259
:101A400024D10068016821F001010160002080BDFF
:101A50000268136823F00E03136045F25742C5F67F
:101A6000020291420A6822F001020A6014DC45F287
:101A70002F42C5F6020291421DDC45F20842C5F62E
:101A8000020291422CD045F21C4225E0086820F069
:101A900001000860002080BD45F27F42C5F60202C9
:101AA000914211DC45F25842C5F60202914217D02C
:101AB00045F26C4210E045F23042C5F60202914216
:101AC0000ED045F2444207E045F29442C5F60202C8
:101AD000914205D045F28042C5F6020291421AD1E8
:101AE000D0E9181CD0E916E30A6822F480720A6073
:101AF00003F01F01012202FA01F1CEF80410816EF9
:101B0000CCF80410C16E31B10A6822F480720A6008
:101B1000D0E91C124A60002180F83410012280F8BC
:101B20003520026D0AB190470021084680BD0000B3
:101B30002DE9F04381B00021009140F200010446FC
:101B4000C2F2004140F26F49A56DC4F20209086873
:101B500048F2B511C1F64E312668A0FB01084E458A
:101B60002F682A6815DC9F20C4F2020086422BDC15
:101B70005720C4F2020086424FDC1020C4F202005B
:101B8000864278D02820C4F20200864273D04020DA
:101B90006CE045F22F40C5F60200864227DC40F299
:101BA000B740C4F20200864243DC40F27040C4F207
:101BB000020086425FD040F28840C4F202008642B2
:101BC00059D040F2A04051E040F22740C4F2020058
:101BD00086423DDCA020C4F2020086424BD0B820F1
:101BE000C4F20200864246D040F210403EE045F288
:101BF0006B40C5F60200864274DC45F23040C5F603
:101C00000200864200F0818045F24440C5F60200A1
:101C100086427AD045F2584072E05820C4F2020061
:101C2000864228D07020C4F20200864223D0882049
:101C30001CE040F2B840C4F2020086421BD045F2DC
:101C40000840C5F6020086425FD045F21C4057E0CE
:101C500040F22840C4F2020086420CD040F24040DC
:101C6000C4F20200864206D040F25840C4F202009C
:101C7000864240F0ED84E06D00F01F01082000FA7C
:101C800001F23A4200F0148140F20F40C4F2020027
:101C9000864213DC6F20C4F20200864200F38E807D
:101CA0003F20C4F20200864200F3CF801020C4F22D
:101CB0000200864200F0ED802820E5E04E4500F36A
:101CC000898040F23F40C4F20200864200F3C480A3
:101CD00040F21040C4F20200864200F0DA8040F286
:101CE0002840D1E045F26C40C5F6020086420CD097
:101CF00045F28040C5F60200864206D045F2944087
:101D0000C5F60200864240F0A3842068E16D01F030
:101D10001F010368580727D50420884010EA0207EE
:101D200022D01904686000F18780980600F18C8445
:101D300040F20F40C4F20200864200F3AB836F20F2
:101D4000C4F20200864200F3E6833F20C4F20200A0
:101D5000864200F350841020C4F20200864200F054
:101D60006D84282000F066BC980742D50220884088
:101D700010EA02073DD01904686000F10E8398064E
:101D800000F1988440F20F40C4F20200864200F352
:101D9000AF836F20C4F20200864200F311843F201B
:101DA000C4F20200864200F356841020C4F20200FE
:101DB000864200F07384282000F06CBC9F20C4F29F
:101DC0000200864251DC7020C4F20200864260D0DC
:101DD000882059E040F29F40C4F2020086424BDC6A
:101DE00040F27040C4F20200864252D040F2884075
:101DF0004AE0180740F12C8408208840104000F089
:101E0000278440F20F40C4F20200864200F32C8384
:101E10006F20C4F20200864200F34F833F20C4F2D9
:101E20000200864200F393831020C4F2020086422F
:101E300000F0B1832820A9E3D80300F1B482A16C9B
:101E4000002940F00C8300F003BC4020C4F20200E3
:101E500086421ED0582017E040F24040C4F20200F3
:101E6000864216D040F258400EE0A020C4F2020094
:101E700086420ED0B82007E040F2B840C4F202001B
:101E8000864206D040F2A040C4F20200864240F0F2
:101E90008E82206804230068184209D020680368F5
:101EA00023F004030360AA60606D40F001006065E8
:101EB000012000FA01F23A4270D040F20F40C4F221
:101EC0000200864210DC6F20C4F2020086421CDC55
:101ED0003F20C4F20200864232DC1020C4F202002D
:101EE000864251D028204AE04E451ADC40F23F405D
:101EF000C4F2020086422ADC40F21040C4F2020022
:101F0000864241D040F2284039E09F20C4F20200CE
:101F1000864225DC7020C4F20200864234D088203C
:101F20002DE040F29F40C4F2020086421FDC40F2E6
:101F30007040C4F20200864226D040F288401EE083
:101F40004020C4F2020086421ED0582017E040F222
:101F50004040C4F20200864216D040F258400EE0E3
:101F6000A020C4F2020086420ED0B82007E040F262
:101F7000B840C4F20200864206D040F2A040C4F24B
:101F80000200864240F016822068406900F080001E
:101F900020B1AA60606D40F002006065042000FA84
:101FA00001F23A4270D040F20F40C4F20200864281
:101FB00010DC6F20C4F2020086421CDC3F20C4F219
:101FC0000200864232DC1020C4F20200864251D068
:101FD00028204AE04E451ADC40F23F40C4F202009D
:101FE00086422ADC40F21040C4F20200864241D010
:101FF00040F2284039E09F20C4F20200864225DCEE
:102000007020C4F20200864234D088202DE040F2D5
:102010009F40C4F2020086421FDC40F27040C4F2CE
:102020000200864226D040F288401EE04020C4F2E2
:10203000020086421ED0582017E040F24040C4F211
:102040000200864216D040F258400EE0A020C4F2B2
:10205000020086420ED0B82007E040F2B840C4F239
:102060000200864206D040F2A040C4F2020086423E
:1020700040F0A6812068006800F0020020B1AA604C
:10208000606D40F004006065102000FA01F13942F3
:102090007ED040F20F40C4F20200864210DC6F2076
:1020A000C4F2020086421CDC3F20C4F202008642D9
:1020B00032DC1020C4F20200864251D028204AE0CF
:1020C0004E451ADC40F23F40C4F2020086422ADC50
:1020D00040F21040C4F20200864241D040F2284053
:1020E00039E09F20C4F20200864225DC7020C4F251
:1020F0000200864234D088202DE040F29F40C4F296
:10210000020086421FDC40F27040C4F202008642A8
:1021100026D040F288401EE04020C4F202008642F1
:102120001ED0582017E040F24040C4F20200864220
:1021300016D040F258400EE0A020C4F202008642C1
:102140000ED0B82007E040F2B840C4F20200864248
:1021500006D040F2A040C4F20200864240F0368130
:10216000266808223068104212D0A96020680168F1
:102170004903016806D4C90506D4016821F00801A5
:10218000016001E008034FD4216C09B12046884763
:10219000E06D202100F01F008140394200F0AE8048
:1021A00040F20F432268C4F202039A4210DC6F230C
:1021B000C4F202039A421CDC3F23C4F202039A4297
:1021C00036DC1023C4F202039A4255D028234EE095
:1021D0004A451ADC40F23F43C4F202039A422EDC25
:1021E00040F21043C4F202039A4245D040F2284321
:1021F0003DE09F23C4F202039A4229DC7023C4F21B
:1022000002039A4238D0882331E040F29F43C4F25F
:1022100002039A4223DC40F27043C4F202039A4262
:102220002AD040F2884322E0A16C0029AED1AFE76A
:102230004023C4F202039A421ED0582317E040F212
:102240004043C4F202039A4216D040F258430EE0D3
:10225000A023C4F202039A420ED0B82307E040F252
:10226000B843C4F202039A4206D040F2A043C4F23B
:1022700002039A4240F0AC802268102312681A428E
:102280003CD0A96094F835202168042A0A681DD141
:1022900022F016020A604A6922F080024A61226C2A
:1022A0000AB9A26C1AB10A6822F008020A603F213A
:1022B00001FA00F0A860002084F83400012084F8BE
:1022C0003500216D002940F0CA80C1E15003086843
:1022D0000CD4C0050ED4086820F01000086000205F
:1022E00084F83400012084F8350003E0000301D4B1
:1022F000616C00E0E16B09B120468847606D002801
:1023000000F0A681606DC00700F0A580042084F86D
:10231000350040F20F412068C4F20201884210DC0F
:102320006F21C4F2020188421CDC3F21C4F2020189
:1023300088424FDC1021C4F2020188426FD028216C
:1023400067E048451ADC40F23F41C4F2020188428E
:1023500047DC40F21041C4F2020188425FD040F2F3
:10236000284156E09F21C4F20201884242DC7021DC
:10237000C4F20201884252D088214AE040F29F41D3
:10238000C4F2020188423CDC40F27041C4F2020116
:10239000884244D040F288413BE0D80376D4616C57
:1023A00000295CD154E1216C002958D150E1082367
:1023B000304670E53068002000287FF4EAADEDE596
:1023C0003068002000287FF45AAE5DE60422C9E69A
:1023D000022353E74021C4F2020188421FD0582152
:1023E00017E040F24041C4F20201884217D040F2A7
:1023F00058410EE0A021C4F2020188420FD0B8215A
:1024000007E040F2B841C4F20201884207D040F22E
:10241000A041C4F20201884208BF206800E02068A1
:102420004FEA9821026822F0010202600098013010
:102430000090884203D820680068C007F6D1206861
:10244000002184F834100068C0074FF0030008BF73
:10245000012084F83500E16C002900F0F980204665
:10246000884701B0BDE8F0834E4532DC40F23F4082
:10247000C4F20200864271DC40F21040C4F2020055
:10248000864200F0888040F228407FE0E16B00291E
:10249000E5D1DDE04E454BDC40F23F40C4F20200A6
:1024A000864200F3AF8040F21040C4F20200864240
:1024B00000F0C48040F22840BCE09F20C4F202003B
:1024C000864254DC7020C4F20200864263D0882029
:1024D0005CE040F29F40C4F2020086424EDC40F2D3
:1024E0007040C4F20200864255D040F288404DE070
:1024F0004E4571DC40F23F40C4F20200864200F3D8
:10250000B18040F21040C4F20200864200F0C68062
:1025100040F22840BEE09F20C4F2020086427ADCEE
:102520007020C4F20200864200F08880882081E09A
:1025300040F29F40C4F20200864273DC40F27040D9
:10254000C4F20200864279D040F2884072E0402016
:10255000C4F2020086421ED0582017E040F24040EC
:10256000C4F20200864216D040F258400EE0A0208D
:10257000C4F2020086420ED0B82007E040F2B84014
:10258000C4F20200864206D040F2A040C4F202002B
:10259000864240F0948026686FF01C02306810403C
:1025A0003060012000FA01F169606065002184F863
:1025B000341084F83500E16C00297FF450AF47E017
:1025C0009F20C4F20200864255DC7020C4F2020053
:1025D000864263D088205DE040F29F40C4F2020052
:1025E00086424FDC40F27040C4F20200864255D071
:1025F00040F288404EE04020C4F2020086421DD0E6
:10260000582017E040F24040C4F20200864215D044
:1026100040F258400EE0A020C4F2020086420DD0E5
:10262000B82007E040F2B840C4F20200864205D06C
:1026300040F2A040C4F20200864243D126686FF007
:102640000801306808403060216C00297FF407AF32
:1026500001B0BDE8F0834020C4F2020086421DD0E4
:10266000582017E040F24040C4F20200864215D0E4
:1026700040F258400EE0A020C4F2020086420DD085
:10268000B82007E040F2B840C4F20200864205D00C
:1026900040F2A040C4F20200864216D126686FF0D4
:1026A0001401306808403060002084F834000120B4
:1026B00084F83500E16B00297FF4D1AEC8E76FF0F4
:1026C0000E026BE76FF00401BBE76FF00A01E8E769
:1026D0002DE9F04381B0044600F09EFB002C00F091
:1026E000758140F26F4805462068C4F202084045F3
:1026F00015DC9F21C4F2020188422BDC5721C4F271
:102700000201884251DC1021C4F2020188427AD0D1
:102710002821C4F20201884275D040216EE045F2C2
:102720002F41C5F60201884227DC40F2B741C4F2CE
:102730000201884245DC40F27041C4F20201884245
:1027400061D040F28841C4F2020188425BD040F27D
:10275000A04153E040F22741C4F2020188423FDC2D
:10276000A021C4F2020188424DD0B821C4F2020176
:10277000884248D040F2104140E045F26B41C5F636
:102780000201884200F3908045F23041C5F6020113
:10279000884200F09C8045F24441C5F6020188421F
:1027A00000F0958045F258418CE05821C4F20201B6
:1027B000884228D07021C4F20201884223D08821A7
:1027C0001CE040F2B841C4F2020188421BD045F23D
:1027D0000841C5F60201884279D045F21C4171E0FA
:1027E00040F22841C4F2020188420CD040F240413C
:1027F000C4F20201884206D040F25841C4F20201FC
:10280000884240F0138240F20F420021C4F20202DB
:1028100084F8341090424FF0020184F8351012DC35
:102820006F21C4F20201884220DC3F21C4F2020180
:10283000884200F392801021C4F20201884200F025
:10284000B1802821A8E040451EDC40F23F41C4F29F
:102850000201884200F3888040F21041C4F2020174
:10286000884200F09F8040F2284195E09F21C4F209
:102870000201884200F381807021C4F20201884283
:1028800000F09080882187E040F29F41C4F202016D
:10289000884279DC40F27041C4F20201884200F0C3
:1028A000818040F2884177E045F26C41C5F6020133
:1028B00088420CD045F28041C5F60201884206D01C
:1028C00045F29441C5F60201884240F0AF8104F11F
:1028D000080E002084F83400022084F835009EE8B9
:1028E0000640A1F180032068B3FA83F340294FEA40
:1028F0005313D4E90579D4E9076C05684FEA8333AB
:102900006FF3101508BF102345EAD2014AF6F832DA
:102910001943CAF2FD7241EADE014CF6CD4341EAA9
:10292000D701024441EAD901CCF6CC4341EAD601B1
:10293000A2FB032341EA1C1101606FF0030000EACF
:102940009300E0652046FDF7FBFFE16D012201F0F9
:102950001F0102FA01F141609CE04021C4F2020132
:1029600088421FD0582117E040F24041C4F20201D2
:10297000884217D040F258410EE0A021C4F2020173
:1029800088420FD0B82107E040F2B841C4F20201FA
:10299000884207D040F2A041C4F20201884208BF39
:1029A000206800E02068016821F00101016000BF9B
:1029B00027683868C0070DD000F02EFA401B0628A3
:1029C000F6D320206065032084F83500012001B093
:1029D000BDE8F08348F23F0104F108053868CFF6FE
:1029E000106108402ECD0843A1691043E2691843E5
:1029F000236A0543606A2943042841EA020141EA47
:102A0000030103D1D4E90B231143194341F200021E
:102A1000C5F600421268B2F1005F17D36268A2F1F6
:102A20002903202B06D23F25CCF2C03525FA03F32B
:102A3000DB0706D1A2F14F030022042B38BF01228D
:102A400000E00122002A18BF41F4801139600428F7
:102A5000796921F0070141EA000510D1D4E90A1093
:102A600045EA010558B12046FEF7CAF838B14020C2
:102A70006065012084F8350001B0BDE8F083204690
:102A80007D61FDF75DFFE16D3F2201F01F0102FA5C
:102A900001F181602068404519DC9F21C4F20201E8
:102AA000884231DC5721C4F20201884256DC1021F1
:102AB000C4F20201884200F091802821C4F2020190
:102AC000884200F08B804021C4F2020184E045F28C
:102AD0002F41C5F6020188422BDC40F2B741C4F217
:102AE0000201884248DC40F27041C4F2020188428F
:102AF00074D040F28841C4F2020188426ED040F2A4
:102B0000A041C4F2020167E040F22741C4F2020191
:102B1000884240DCA021C4F2020188425ED0B82184
:102B2000C4F20201884259D040F21041C4F20201BD
:102B300052E045F26B41C5F6020188423CDC45F2A9
:102B40003041C5F60201884248D045F24441C5F6FD
:102B50000201884242D045F258413BE05821C4F27C
:102B6000020188423AD07021C4F20201884235D075
:102B70008821C4F202012FE040F2B841C4F2020100
:102B800088422BD045F20841C5F60201884225D083
:102B900045F21C411EE040F22841C4F20201884285
:102BA0001CD040F24041C4F20201884216D040F2EB
:102BB0005841C4F202010FE045F26C41C5F6020132
:102BC00088420BD045F29441C5F60201884205D0F7
:102BD00045F28041C5F6020188421FD12046FDF72B
:102BE0003FFFA068802801D10020606004F16003ED
:102BF0006068C7B201380ECB07280F60536009D850
:102C00002046FDF7A5FF04F16C02002307CA03600C
:102C10004A6003E000206067C4E91B000020606593
:102C2000012184F8351001B0BDE8F0834020C9E6E9
:102C3000704700000000000080B58821C5F6000143
:102C40000A68024208BF80BD0860FFF7F1FF80BD3F
:102C50002DE9F04F83B00E68002E00F0C98000F11E
:102C600026420A2302F1FF7240F2040C4FEAB2221C
:102C7000019242F20042C5F6000CC5F602024FF086
:102C8000010B90424FF0000508BF092300274FF0C9
:102C9000010800930AE000BF0E68043736FA08F214
:102CA00008F1010805F1020500F0A280A8F1010A6F
:102CB0000BFA0AF216EA0209EED04E68122E17D865
:102CC0000BFA06F414F0061F12D00323D0F808E024
:102CD000AB40CC682EEA0303AC4023438360C6F3C9
:102CE0000014436823EA020204FA0AF31A4342601A
:102CF0000323C26803FA05FE8B6846F0100422EA3B
:102D00000E02AB40122C42EA0302C26012D16FF0F5
:102D1000030207F01C0402EA5A020F260244A640EE
:102D2000136AD1F810B0B3430BFA04F44FF0010B5F
:102D30002343136202684B6803F003046FEA0E0634
:102D4000AC403240DB0042EA04020260A4D544F207
:102D5000F443C5F602031A6842F002021A601A68C8
:102D600007F00C0302F002020292029A2AF0030218
:102D700040F2084A019C009EC5F6000A092C38BFA3
:102D800026460F2452F80AE09C402EEA040406FA74
:102D900003F3234342F80A30DCF87C204B6842EA14
:102DA0000906DC0358BF22EA09069C034FF0B04E27
:102DB000CCF87C60DCF8802042EA090658BF22EAA1
:102DC0000906DC02CCF88060DEF8002042EA090641
:102DD00058BF22EA09069B02CEF80060DCF800200A
:102DE00042EA090658BF22EA0906CCF8006053E718
:102DF00003B0BDE8F08F0000002A08BF090481611C
:102E0000704700000000000041F20000C5F60040DD
:102E10000068000C7047000040F29830C2F2004099
:102E2000006870470000000040F2100040F2983146
:102E3000C2F20040C2F2004100780A681044086003
:102E4000704700000000000080B5032000F080F80B
:102E500001F022FA44F2184146F69413C5F6020135
:102E6000C0F600030A68096801F00F01C2F30322EB
:102E7000595C9A5C01F01F0102F01F02D04040F241
:102E80000402C2F2004220FA01F1116040F2000196
:102E9000C2F200410860002000F00AF800281CBFC0
:102EA000012080BD00F030F8002080BD000000004F
:102EB000B0B540F21001C2F20041097801B30446F6
:102EC00040F20000C2F200404FF47A72B2FBF1F11E
:102ED0000068B0FBF1F001F067FD0F2C4FF0010529
:102EE0000CD858B94FF0FF3000222146002500F0E1
:102EF0001FF840F21400C2F2004004602846B0BD42
:102F00000120B0BD0000000081B044F2F440C5F6DD
:102F10000200016841F002010160006800F0020057
:102F20000090009801B0704780B503F05DFC80BD53
:102F300070B514460D46064603F066FC2946224647
:102F400002F01EFC0146304603F066FC70BD000036
:102F500080B503F075FC80BDB0B544F60C05C5F630
:102F6000020529684907296805D401F00701081AF4
:102F700018BF0120B0BD21F0070108432860FFF70A
:102F80004BFF044655F8080C800407D4FFF744FFB4
:102F9000001BB0F57A7FF5D90120B0BD0020B0BD8F
:102FA00080B501F029F944F2204146F69412C5F6A5
:102FB0000201C0F600020968C1F30211515C01F080
:102FC0001F01C84080BD000080B544F2304EC5F6F8
:102FD000020E5EF8083C5EF8081CC1F3051C5EF8A2
:102FE000041CBCF1000FDEF8042016D0C2F3CC02A2
:102FF00001F00101514303F00303022B00EE101A0C
:10300000B8EE400A0ED0012B0FD01BB95EF8301C71
:1030100089060DD49FED341A18E000218160C0E9C3
:10302000001180BD9FED2F1A10E09FED2D1A0DE0CD
:103030005EF8301C49F20002C0F2D032C1F3C10187
:1030400022FA01F101EE101AB8EE411ADEF8001072
:103050009FED263A6FF35F2102EE101ADEF80010A2
:10306000C1F34621B8EE422A00EE032A00EE10CA50
:10307000B7EE003AB8EE400A81EE000A32EE031ACB
:1030800002EE101AB8EE422A20EE010A32EE031ABE
:1030900080EE011ABCEEC11A80ED001ADEF80010B5
:1030A000C1F3064101EE101AB8EE411A31EE031ACF
:1030B00080EE011ABCEEC11A80ED011ADEF8001094
:1030C000C1F3066101EE101AB8EE411A31EE031A8F
:1030D00080EE010ABCEEC00A10EE101A816080BDBD
:1030E0000024744A0024F44A0024744C000000397F
:1030F00080B544F2384EC5F6020E5EF8103C5EF81C
:10310000101CC1F3053C5EF80C1CBCF1000FDEF88E
:10311000042014D0C1F30011C2F3CC02514300EEDD
:10312000101A03F003010229B8EE400A0CD071B95D
:103130005EF8381C89060DD49FED341A18E0002182
:103140008160C0E9001180BD9FED2F1A10E09FED56
:103150002D1A0DE05EF8381C49F20002C0F2D032A0
:10316000C1F3C10122FA01F101EE101AB8EE411AC1
:10317000DEF800109FED263A6FF35F2102EE101A81
:10318000DEF80010C1F34621B8EE422A00EE032A11
:1031900000EE10CAB7EE003AB8EE400A81EE000A1F
:1031A00032EE031A02EE101AB8EE422A20EE010A9D
:1031B00032EE031A80EE011ABCEEC11A80ED001A3D
:1031C000DEF80010C1F3064101EE101AB8EE411A04
:1031D00031EE031A80EE011ABCEEC11A80ED011A1D
:1031E000DEF80010C1F3066101EE101AB8EE411AC4
:1031F00031EE031A80EE010ABCEEC00A10EE101A7E
:10320000816080BD0024744A0024F44A0024744C78
:10321000000000390000000080B544F2404EC5F6C1
:10322000020E5EF8183C5EF8181CC1F3055C5EF8EF
:10323000141CBCF1000FDEF8042014D0C1F30021EF
:10324000C2F3CC02514300EE101A03F0030102292D
:10325000B8EE400A0CD071B95EF8401C89060DD456
:103260009FED341A18E000218160C0E9001180BD93
:103270009FED2F1A10E09FED2D1A0DE05EF8401C17
:1032800049F20002C0F2D032C1F3C10122FA01F1C9
:1032900001EE101AB8EE411ADEF800109FED263A42
:1032A0006FF35F2102EE101ADEF80010C1F3462121
:1032B000B8EE422A00EE032A00EE10CAB7EE003A3A
:1032C000B8EE400A81EE000A32EE031A02EE101A3E
:1032D000B8EE422A20EE010A32EE031A80EE011AFD
:1032E000BCEEC11A80ED001ADEF80010C1F30641F1
:1032F00001EE101AB8EE411A31EE031A80EE011AEF
:10330000BCEEC11A80ED011ADEF80010C1F30661AF
:1033100001EE101AB8EE411A31EE031A80EE010ADE
:10332000BCEEC00A10EE101A816080BD0024744A01
:103330000024F44A0024744C00000039000000000E
:1033400080B584B00146B0F5805F4FF0000023DB0C
:10335000B1F5004F5BDB00F07880B1F5803F00F005
:10336000B380B1F5002F40F01E8144F20040C5F655
:103370000200816D01F44031B1F5003F00F0198188
:10338000B1F5803F00F0FF80002940F02F810068F8
:10339000000140F12B81C5E0B1F5806F1CDAB1F579
:1033A000807F00F06B80B1F5007F40F0FC8044F23C
:1033B0000041C5F60201086DC0F38212042A00F232
:1033C000158148F20000C0F2BB00DFE812F09F0058
:1033D000A800AF00EC00B80000F06380B1F5006F0A
:1033E00040F0E18044F20041C5F60201886DC0F36F
:1033F0000262042A00F2FA8048F20000C0F2BB0028
:10340000DFE812F084008D009400D1009D00B1F53A
:10341000805F00F06880B1F5804F40F0C48044F2D6
:103420000040C5F60200816DC1F30271052900F26A
:10343000DD80DFE811F00600CA00D100D800DE0010
:103440001C00FFF7ADFD04B080BD44F20040C5F69E
:103450000200016D01F04051B1F1005F00F09C806D
:10346000B1F1805F00F0A180002940F0BF800068CA
:1034700041F200218003C0F27A01C0E044F2004131
:10348000C5F60201086D00F00702042A00F2AE80C2
:1034900048F20000C0F2BB00DFE802F03841488586
:1034A000510044F20041C5F60201886DC0F342525A
:1034B000042A00F29B8048F20000C0F2BB00DFE863
:1034C00002F0252E35723E0044F20040C5F602009F
:1034D000C16C0068C9031AD5000140F1878001A8BA
:1034E000FFF706FE55E044F20041C5F60201086D03
:1034F000C0F30232042A00F2798048F20000C0F2E0
:10350000BB00DFE802F0030C13501C0008688001C8
:103510006CD501A8FFF758FD029804B080BD08687B
:10352000000163D501A8FFF7E3FD05E0086880000E
:103530005CD501A8FFF770FE019804B080BDC86C8F
:103540000B6810F0405208680CD113F0040309D046
:10355000C0F3C10049F20001C0F2D03121FA00F0FD
:1035600004B080BDB2F1805F02D110F4807050D100
:10357000086810F400301CBF41F20020C0F27A004D
:10358000B2F1005F57E0006880002FD501A8FFF777
:1035900043FE039804B080BD0068000126D501A851
:1035A000FFF7A6FD029804B080BD006880011DD51C
:1035B000AFE7C16C036811F04051026823D113F0EA
:1035C000040320D0C2F3C100C4E7006800010DD598
:1035D00001A8FFF78DFD9FE70068800006D501A8D0
:1035E000FFF71AFE98E70168490718D4002004B0D5
:1035F00080BD006840F60011C005C0F23D0101EA3F
:10360000E07004B080BDB1F1805F0AD112F4807225
:1036100007D040F60010C0F23D0004B080BD006845
:1036200096E7006810F400301CBF41F20020C0F2A1
:103630007A00B1F1005F18BF002004B080BD000027
:103640002DE9F04381B00446C07844F22C490007CC
:10365000C5F6020901D400262DE0606E4FEA305015
:1036600003280DD80026DFE800F0020E1613D9F863
:103670000000002640F40030C9F800004EB912E006
:10368000012636B90FE0201D022102F095F806460A
:103690004EB1B04611E004F12400022102F01CF901
:1036A0000646002EF5D1D9F82400616E20F44010B2
:1036B0000843C9F824004FF000086078C0072FD0F5
:1036C000606D042807D8DFE800F00A131B0303002D
:1036D000F6B1B04624E00126002EFAD118E0D9F860
:1036E000000040F40030C9F80000002EF1D10FE0D6
:1036F000201D002102F060F80646002EE9D107E007
:1037000004F12400002102F0E7F80646002EE0D183
:10371000D9F82400616D20F007000843C9F824009F
:103720006078800731D5A06D4FEAB010042807D823
:10373000DFE800F00A131B030300F6B1B04624E0F3
:103740000126002EFAD118E0D9F8000040F400302C
:10375000C9F80000002EF1D10FE0201D002102F079
:103760002BF80646002EE9D107E004F124000021E1
:1037700002F0B2F80646002EE0D1D9F82400A16D7F
:1037800020F4E0700843C9F824006078400733D57E
:10379000D4F8A4004FEA7050042807D8DFE800F0FE
:1037A0000A131B030300F6B1B04625E00126002EE4
:1037B000FAD118E0D9F8000040F40030C9F8000050
:1037C000002EF1D10FE0201D002101F0F5FF06468B
:1037D000002EE9D107E004F12400002102F07CF87A
:1037E0000646002EE0D1D9F82C00D4F8A41020F41D
:1037F00060000843C9F82C006078000733D5D4F87E
:10380000A8004FEA3060042807D8DFE800F00A1368
:103810001B030300F6B1B04625E00126002EFAD1C5
:1038200018E0D9F8000040F40030C9F80000002E7C
:10383000F1D10FE0201D002101F0BEFF0646002E51
:10384000E9D107E004F12400002102F045F8064622
:10385000002EE0D1D9F82C00D4F8A81020F0E060B8
:103860000843C9F82C00E078800727D5A06C4FEA00
:103870003010032806D8DFE800F002091202AEB1CA
:10388000B0461BE00126002EFAD10FE0D9F8000067
:1038900040F40030C9F80000002EF1D106E0201DF0
:1038A000022101F089FF0646002EE9D1D9F8200057
:1038B000A16C20F030000843C9F820006078C006F1
:1038C00031D5E06D4FEA3030042807D8DFE800F04A
:1038D0000A131B030300F6B1B04624E00126002EB4
:1038E000FAD118E0D9F8000040F40030C9F800001F
:1038F000002EF1D10FE0201D002101F05DFF0646F2
:10390000002EE9D107E004F12400002101F0E4FFDA
:103910000646002EE0D1D9F82400E16D20F4E04005
:103920000843C9F824006078800625D5206E4FEA48
:103930003040052807D8DFE800F0030A0F0303032F
:1039400096B1B04618E00126002EFAD10CE0201DF9
:10395000012101F031FF04E004F12400012101F014
:10396000BBFF0646002EECD1D9F82400216E20F4CE
:10397000E0200843C9F824006078400627D5D4F831
:10398000AC004FEA3070052807D8DFE800F0030AE2
:103990000F03030396B1B04619E00126002EFAD1B9
:1039A0000CE0201D012101F007FF04E004F12400D8
:1039B000012101F091FF0646002EECD1D9F82C0030
:1039C000D4F8AC1020F0E0400843C9F82C0060782F
:1039D00000061FD5E06ED0B1B0F1005F12D0B0F19B
:1039E000805F24D1D9F8000040F40030C9F800000D
:1039F0007EB9D9F82400E16E20F040500843C9F8A0
:103A0000240007E0201D012101F0D6FE0646002E0D
:103A1000EFD0B046E078C00729D0606C03280AD800
:103A2000DFE800F0020D1602CEB1B0461FE001261D
:103A3000002EEED1DDE70126002EF6D10FE0D9F8F9
:103A4000000040F40030C9F80000002EEDD106E07F
:103A5000201D022101F0B0FE0646002EE5D1D9F866
:103A60002000616C20F003000843C9F82000A07812
:103A7000400643D5D9F8D40340F48070C9F8D40384
:103A8000FFF7CAF9074600BFD9F8D403C00505D42B
:103A9000FFF7C2F9C01B6528F6D303266EBBD9F821
:103AA0004410D4F8B000414011F4407F11D0D9F84F
:103AB0004410D9F8442042F48032C9F84420D9F89F
:103AC000442021F4407122F48032C9F84420C9F81E
:103AD0004410B0F5807F0FD1FFF79EF9074641F201
:103AE000893500BFD9F84400800705D4FFF794F961
:103AF000C01BA842F6D3032686B1B0462078C00783
:103B000041D0A06F4FEAF000052823D8DFE800F08D
:103B100003262B03030376B3B04634E04FF6CF738E
:103B2000D4F8B00059F81C2CC0F2FF0300F4407127
:103B300022F47C5203EA1013B1F5407F08BF1A4308
:103B40006FF31F3049F81C2CD9F844100843C9F80A
:103B50004400D3E70126002EDED10CE0201D012118
:103B600001F02AFE04E004F12400012101F0B4FE7A
:103B70000646002ED0D1D9F82800A16F20F03800D9
:103B80000843C9F828002078800723D5606F0528EE
:103B900007D8DFE800F0030A0F03030396B1B0462D
:103BA00018E00126002EFAD10CE0201D012101F0C1
:103BB00003FE04E004F12400012101F08DFE06461D
:103BC000002EECD1D9F82800616F20F007000843DF
:103BD000C9F828002078400725D5D4F8900005289A
:103BE00007D8DFE800F0030A0F03030396B1B046DD
:103BF00019E00126002EFAD10CE0201D012101F070
:103C0000DBFD04E004F12400012101F065FE06461D
:103C1000002EECD1D9F82C00D4F8901020F0070039
:103C20000843C9F82C002078800627D5D4F88C00EA
:103C30004FEA3070052807D8DFE800F0030A0F03C9
:103C4000030396B1B04619E00126002EFAD10CE02C
:103C5000201D002101F0B0FD04E004F12400022148
:103C600001F03AFE0646002EECD1D9F82800D4F82F
:103C70008C1020F0E0400843C9F828002078400666
:103C800027D5D4F898004FEAB020052807D8DFE8F8
:103C900000F0030A0F03030396B1B04619E00126B2
:103CA000002EFAD10CE0201D002101F085FD04E07A
:103CB00004F12400022101F00FFE0646002EECD193
:103CC000D9F82C00D4F8981020F4E0500843C9F833
:103CD0002C002078000627D5D4F89C004FEA7030DD
:103CE000052807D8DFE800F0030A0F03030396B1A5
:103CF000B04619E00126002EFAD10CE0201D00216B
:103D000001F05AFD04E004F12400022101F0E4FD79
:103D10000646002EECD1D9F82C00D4F89C1020F4E3
:103D200060400843C9F82C002078000716D5D4F865
:103D30008000B0F5805F08D104F12400022101F079
:103D4000CBFD002818BF4FF00108D9F82800D4F89F
:103D5000801020F440500843C9F828002078C0069D
:103D600016D5D4F89400B0F5807F08D104F1240072
:103D7000022101F0B1FD002818BF4FF00108D9F869
:103D80002C00D4F8941020F440700843C9F82C009B
:103D9000A078000721D5D4F8A000B0F5003F19D0D5
:103DA000B0F5803F10D0C0BB201D002101F004FD04
:103DB00006468EB9D9F82C00D4F8A01020F4403073
:103DC0000843C9F82C0008E004F12400022101F0A6
:103DD00083FD0646002EEDD0B046A078400729D5D9
:103DE000D4F88400B0F5401F21D0B0F5001F18D0E2
:103DF000B0F5801F40F0C180D9F8000040F40030D9
:103E0000C9F80000AEB9D9F82800D4F8841020F41D
:103E100040100843C9F828000CE00126002EDBD131
:103E2000C8E704F12400012101F056FD0646002EEA
:103E3000E9D0B046A078C0071FD0E06CB0F5803F55
:103E400010D0B0B9D9F8000040F40030C9F8000033
:103E500096B9D9F82000E16C20F480300843C9F805
:103E600020000AE0201D022101F0A6FC06461EB932
:103E7000EFE70126002EECD0B046E078800608D5AA
:103E800004F12400022101F027FD002818BF4FF0A3
:103E90000108206881031ED4C10234D4C1003CD47F
:103EA000810245D441004DD4B0F1FF3F5ADD0002FC
:103EB00008D5D9F82800D4F8881020F44000084329
:103EC000C9F82800B8F1000F18BF4FF001084046AC
:103ED00001B0BDE8F083E16F6FF0010202EB312227
:103EE000022A0AD34FEA31223AB1012A4AD1D9F83B
:103EF000002042F40032C9F80020002E45D04FF0D7
:103F00000108C102CAD5D9F82410226F21F000415E
:103F10001143C9F82410C100C2D559F81C1CD4F8AB
:103F2000B42021F48041114349F81C1C8102B9D509
:103F3000D9F82410A26E21F080711143C9F8241021
:103F40004100B1D559F81C1C21F4004149F81C1C52
:103F5000D4F8B81059F81C2C114349F81C1CB0F1C6
:103F6000FF3FA4DCD9F82010226D21F0405111430D
:103F7000C9F820100002A5D59BE70126002E7FF48A
:103F800058AF40E70126002EB9D1D9F8282022F4F5
:103F900040721143C9F82810C1027FF57FAFB2E724
:103FA0002DE9F04381B0002800F0F48042F20008CF
:103FB0000446C5F200288946D8F8000000F00F003A
:103FC00088420ED2D8F8000020F00F0040EA090025
:103FD000C8F80000D8F8000000F00F00484540F095
:103FE000D980206844F218474107C5F602070AD570
:103FF00021693A6802F07002914204D93A6822F0CD
:1040000070021143396001070AD561697A6802F0CC
:104010007002914204D97A6822F0700211437960EB
:10402000C1060AD5A1697A6802F4E062914204D916
:104030007A6822F4E0621143796081060AD5E16969
:10404000BA6802F07002914204D9BA6822F0700294
:104050001143B96081070AD5E1683A6802F00F029E
:10406000914204D93A6822F00F0211433960C00727
:104070007ED1206881070AD5E1683A6802F00F0214
:10408000914204D23A6822F00F0211433960D8F805
:10409000001001F00F0149450DD9D8F8001021F0AA
:1040A0000F0141EA0901C8F80010D8F8001001F02A
:1040B0000F0149456ED141070AD521693A6802F0DE
:1040C0007002914204D23A6822F0700211433960C2
:1040D00001070AD561697A6802F07002914204D240
:1040E0007A6822F0700211437960C1060AD5A1698D
:1040F0007A6802F4E062914204D27A6822F4E062C3
:104100001143796080060AD5E069B96801F0700151
:10411000884204D2B96821F070010843B86000F009
:10412000BBF8396846F69412C0F600023B68C1F34A
:10413000032103F00F03515CD25C01F01F01C84062
:1041400002F01F0140F2040220FA01F1C2F2004223
:10415000116040F2000140F21402C2F20041C2F2CA
:10416000004208601068FEF7A3FE01B0BDE8F083CE
:10417000386820F47061D4E90102012841EA0201A3
:1041800039600BD003282BD002282ED157F8181CE9
:10419000890307D4012001B0BDE8F08357F8181C4B
:1041A000C905F7D557F8081C21F00701084347F85F
:1041B000080CFEF731FE064641F2883557F8080C28
:1041C000616800F03800B0EBC10F3FF452AFFEF76A
:1041D00023FE801BA842F1D9032001B0BDE8F08383
:1041E00057F8181C8901D5D5DCE757F8181C490782
:1041F000D0D5D7E70000000080B500F04DF844F2BC
:10420000184146F69413C5F60201C0F600030A6889
:10421000096801F00F01C2F30322595C9A5C02F0B5
:104220001F0220FA02F201F01F0040F2040122FAFC
:1042300000F0C2F20041086040F20001C2F2004109
:104240000A6080BD0000000080B5FFF7D5FF44F292
:104250001C4146F69412C5F60201C0F60002096838
:10426000C1F30211515C01F01F01C84080BD000084
:1042700080B5FFF7C1FF44F21C4146F69412C5F623
:104280000201C0F600020968C1F30221515C01F08D
:104290001F01C84080BD000044F20041C5F6020184
:1042A0000869C0F3C20003280FD002282AD070BBCF
:1042B0000868800649F20000C0F2D03058BF70474D
:1042C0000968C1F3C101C84070478A6A886AC0F3AF
:1042D000051CC86ABCF1000F4B6B1DD0C3F3CC03A7
:1042E00000F00100584302F00302022A00EE100A17
:1042F000B8EE400A12D0A2B90868800614D49FED27
:10430000261A1EE041F20020C0F27A00704740F603
:104310000010C0F23D007047002070479FED1D1A4D
:104320000FE09FED1B1A0CE0086849F20002C0F292
:10433000D032C0F3C10022FA00F001EE100AB8EE4C
:10434000411A086B9FED153A6FF35F2002EE100AD9
:10435000086BC0F34620B8EE422A013000EE032A73
:1043600000EE10CAB7EE003AB8EE400A81EE000A3D
:1043700032EE031A20EE010A01EE100AB8EE411ADD
:1043800080EE010ABCEEC00A10EE100A704700BFB2
:104390000024744A0024F44A0024744C00000039BC
:1043A0002DE9F04381B0F8B18046007844F200492D
:1043B000C007C5F602095AD0D9F8100000F038013C
:1043C000D9F82800102905D018290FD100F00300D2
:1043D00002280BD1D9F80000800344D5D8F8040096
:1043E000002840D101272FE001271BE2D8F8044024
:1043F0002CB1B4F5A02F0DD0B4F5803F10D0D9F872
:10440000000020F48030C9F80000D9F8000020F442
:10441000802009E0D9F8000040F48020C9F80000AD
:10442000D9F8000040F48030C9F80000FEF7F4FC31
:104430000546A4B1D9F80000800314D4FEF7ECFCC3
:10444000401B6428F6D903270020002800F0EA81E9
:104450000DE000BFFEF7E0FC401B6428F3D8D9F85C
:1044600000008003F6D40120002800F0DB8198F8DA
:10447000000080076BD5D9F8100010F03801D9F88A
:1044800028001CD0182908BF5FEA807017D0D8F820
:104490000C00D9F8001098B321F019010843C9F8AD
:1044A0000000FEF7B9FC0546D9F8000040070DD41E
:1044B000FEF7B2FC401B0228F6D9032743E0D9F8E7
:1044C0000000400702D5D8F80C00D8B3FEF79CFCDA
:1044D00041F2030188420AD8D8F81000D9F8041034
:1044E000402821F47C3124D141F4003023E0D9F874
:1044F0000400D8F8101020F0FE4040EA01601AE0F5
:1045000021F00100C9F80000FEF786FC05460126EF
:10451000D9F8000010F0040086EA90040ED0FEF7EF
:104520007BFC401B0328F3D30327002C00F07A8187
:104530000DE041EA0030C9F804000124002C00F02D
:10454000718104E001270024002C00F06B8198F8B1
:104550000000C00675D5D9F8100000F03801D9F870
:104560002800082905D018291CD100F003000128D3
:1045700018D1D9F80000C00503D5D8F81C00802850
:104580005AD1FEF741FC41F20301884223D8D8F802
:104590002000D9F80410202821F0F84143D141F03F
:1045A000804042E0D8F81C000028D9F8000021D053
:1045B00040F08000C9F80000FEF72EFC054600BF61
:1045C000D9F80000C005DCD4FEF726FC401B022809
:1045D000F6D9032731E0D9F80C00D8F8201020F0E4
:1045E0007C50012440EA0160C9F80C00002C00F066
:1045F000198126E020F08000C9F80000FEF70CFCCD
:1046000005460126D9F8000010F4807086EA1024CF
:104610000ED0FEF701FC401B0328F3D30327002C28
:1046200000F000810DE041EA8060C9F80400012437
:10463000002C00F0F78004E001270024002C00F09B
:10464000F18098F8000000071CD498F8000080065C
:1046500031D498F80000400745D4D8F82440002C05
:1046600000F0DF80D9F8100000F03800182840F082
:104670008880012CD9F82810D9F8300040F0A280A9
:104680000127CFE0D8F814000028D9F874003ED0F4
:1046900040F00100C9F87400FEF7BEFB054600BFFC
:1046A000D9F874008007D0D4FEF7B6FB401B02286F
:1046B000F6D90327B6E0D8F818000028D9F800008A
:1046C0004BD040F48050C9F80000FEF7A5FB05462A
:1046D000D9F800008004BCD4FEF79EFB401B0228E2
:1046E000F6D903279EE0D9F8000440F48070C9F899
:1046F0000004FEF791FB0546D9F80004C0051AD462
:10470000FEF78AFB401B6428F6D903278AE020F0D5
:104710000100C9F87400FEF77FFB0546032700BFC0
:10472000D9F8740080077FF590AFFEF775FB401B4A
:104730000228F5D976E0D8F808401CB1052C75D0D0
:10474000012C79D0D9F8700020F00100C9F8700070
:10475000D9F8700020F0040072E020F48050C9F80D
:104760000000FEF759FB0546032700BFD9F80000FB
:1047700080047FF56EAFFEF74FFB401B0228F5D992
:1047800050E0D9F8000020F08070C9F80000FEF772
:1047900043FB022C05464FF0030709D1D9F800006E
:1047A00080016FD5FEF738FB401B0228F6D939E0AF
:1047B000D9F80000800134D5FEF72EFB401B0228FB
:1047C000F6D92FE001F00302D8F828309A4240F0E1
:1047D000D380C1F30511D8F82C20914240F0CE804F
:1047E0000146D8F830206FF35F21013A914240F042
:1047F000C780C0F34622D8F8341001398A4240F00D
:10480000C180C0F30642D8F8381001398A4240F01E
:10481000BB80C0F30660D8F83C100139884240F0F4
:10482000B5800027F8B201B0BDE8F083D9F8700078
:1048300040F00400C9F87000D9F8700040F00100A1
:10484000C9F87000FEF7E8FA002C054641F28834FA
:104850004FF0030711D000BFD9F8700080073FF573
:10486000FCAEFEF7D9FA401BA042F5D9DAE700BF4B
:10487000FEF7D2FA401BA042D4D8D9F870008007C6
:10488000F6D4EAE608F12807D9F8280040F2F33117
:1048900088438ECF0843591E40EA02104FF47E42EF
:1048A0006FF35F21C9F8280002EB47204FF4FE02A6
:1048B00080B2D8F83C300844D8F8381002EB0141F7
:1048C0004FF0FE4201F4FE0102EB0362084402F0E5
:1048D000FE410844C9F83000D9F82C004FF6F871B1
:1048E00020F00100C9F82C00D9F83400D8F848208D
:1048F000884340EAC200C9F83400D9F82C00D8F83F
:10490000401020F00C000843C9F82C00D9F82C0006
:10491000D8F8441020F002000843C9F82C00D9F858
:104920002C0040F48030C9F82C00D9F82C0040F459
:104930000030C9F82C00D9F82C0040F48020C9F8C8
:104940002C00D9F82C0040F00100C9F82C00D9F84F
:10495000000040F08070C9F80000FEF75DFA0446E0
:104960000327D9F8000080013FF55BAFFEF754FA4A
:10497000001B0228F5D955E7012753E7012751E726
:1049800001274FE701274DE701274BE7012749E7BB
:1049900040F20442C5F60002136823EA000008430F
:1049A000106070470000000080B501F029F880BD5C
:1049B0007047000000000000704700000000000089
:1049C0007047000000000000B0B590F83C20012ABC
:1049D0004FF0020251D0012380F83C3080F83D2096
:1049E00040F2004C0268C4F2010C42F4806363455B
:1049F0005368D2F808E002BF23F470034C682343E5
:104A000040F6FF340D68C4F2000423F07003A242A4
:104A100043EA050353600EDD4FF6FF73C4F2000353
:104A20009A4218DC40F60043C4F200039A4219D0BF
:104A300041F600030AE0B2F1804F13D040F2004388
:104A4000C4F200039A420DD040F60003C4F2000302
:104A50009A4207D00BE0624504D00023C4F2010360
:104A60009A4204D12EF08003896819439160002294
:104A7000012180F83D1080F83C201046B0BD0000B8
:104A800060B310B5044690F83D0028B9002084F8C2
:104A90003C00204600F024F8022084F83D00206805
:104AA000211D01F0A9F8012084F8480084F83E0097
:104AB00084F83F0084F8400084F8410084F8420004
:104AC00084F8430084F8440084F8450084F84600E4
:104AD00084F8470084F83D00002010BD0120704795
:104AE00080B582B041F200010068C4F20001884242
:104AF00001D002B080BD44F2E8400022C5F60200B9
:104B0000016841F0100101600068002100F0100010
:104B1000019001983620FEF70BFA3620FEF704FAD2
:104B200002B080BD000000007047000000000000DF
:104B300010B5044600680169890744BFC1685FEA8F
:104B4000817140D420680169490744BFC1685FEAA8
:104B5000417144D420680169090744BFC1685FEA14
:104B6000017149D420680169C90644BFC1685FEA80
:104B7000C1614DD420680169C9071CBFC1685FEAE3
:104B8000C17152D120680169090644BFC1685FEA5A
:104B9000016151D420680169C90544BFC1685FEA59
:104BA000016150D420680169490644BFC1685FEAC9
:104BB00041614FD420680169890644BFC1685FEA3A
:104BC00081614ED410BD6FF0020101610121217796
:104BD000806980074CD02046FFF7A6FF4EE06FF0BB
:104BE0000401016102212177806910F4407F48D0DF
:104BF0002046FFF799FF4AE06FF0080101610421A8
:104C00002177C069800745D02046FFF78DFF47E038
:104C10006FF01001016108212177C06910F4407F15
:104C200041D02046FFF780FF43E06FF001010161B2
:104C3000204600F049F8A5E76FF0800101612046A9
:104C4000FFF7BAFEA6E76FF4807101612046FFF717
:104C5000AFFEA7E76FF040010161204600F038F891
:104C6000A8E76FF0200101612046FFF7A9FE10BD03
:104C7000204600F021F8204600F022F8002020779E
:104C800060E7204600F018F8204600F019F80020F0
:104C900020775FE7204600F00FF8204600F010F87C
:104CA000002020775EE7204600F006F8204600F05E
:104CB00007F8002020775DE7704700000000000043
:104CC0007047000000000000704700000000000076
:104CD000704700000000000090F88010012901D109
:104CE000022070472421C0F88410026813681168FC
:104CF00023F0005321F0010111600021416613608F
:104D00002022C0F8842080F88010084670470000F8
:104D10007047000000000000704700000000000025
:104D2000B0B5044690F88000012801D10220B0BD42
:104D3000012084F880002420C4F8840020680568DD
:104D4000026822F001020260826822F06062114370
:104D50008160204600F0F0FF206805602020C4F844
:104D60008400002084F88000B0BD00000000000036
:104D7000B0B5044690F88000012801D10220B0BDF2
:104D8000012084F880002420C4F88400206805688D
:104D9000026822F001020260826822F06042114340
:104DA0008160204600F0C8FF206805602020C4F81C
:104DB0008400002084F88000B0BD000000000000E6
:104DC0007047000000000000704700000000000075
:104DD000704700000000000070B50168064640F60C
:104DE0002F00CA691040202808688B680CD100F099
:104DF000200503F080542D1906D0316F002900F0F2
:104E0000A5803046884770BD40F60F05154000F07C
:104E10008580012540F22014C1F20005C0F2004453
:104E200003EA050C00EA040515EB0C0576D0D5075E
:104E300018BF10F4807507D001250D62D6F88C508C
:104E400045F00105C6F88C50950703F0010408D51C
:104E50003CB102250D62D6F88C5045F00405C6F829
:104E60008C50550708D53CB104250D62D6F88C50FE
:104E700045F00205C6F88C5015070CD500F020054A
:104E800055EA0C0507D008250D62D6F88C5045F080
:104E90000805C6F88C5015050BD510F0806508D0B4
:104EA0004FF400650D62D6F88C1041F02001C6F871
:104EB0008C10D6F88C10002948D012F0200109D0AF
:104EC00000F0200003F08051401803D0316F09B189
:104ED000304688473068D6F88C1001F02801806889
:104EE00000F04000401875D0304601F005F83068F9
:104EF000816849065FD5816821F040018160F06FCB
:104F0000002858D045F6E161C0F600010165FCF7C4
:104F1000B7FCD8B1F06F016D884770BD00EA02049C
:104F2000E506F56E13D5012D11D1102008628868B1
:104F3000400618D4B6F85C00B6F85E20B6F85E30CD
:104F4000002B1CBF801A5FEA004263D170BDD502FE
:104F500024D513F4800521D04FF480100862304628
:104F6000FFF732FF70BDF06F40F20F43C4F202034F
:104F700002689A4235DC6F23C4F202039A425FDC76
:104F80003F23C4F202039A4200F380801023C4F24C
:104F900002039A4200F09D80282396E011060ED568
:104FA00000F0800103F40003C91808D0716F0029D4
:104FB0007FF427AFCAE73046FFF70AFF70BD6106EE
:104FC00024D4110257D510F0804154D03046FFF759
:104FD000F7FE70BD3046FFF7FBFE0020C6F88C00E0
:104FE00070BD40F26F43C4F202039A4234DC40F2D7
:104FF0003F43C4F202039A424FDC40F21043C4F232
:1050000002039A4265D040F228435EE0304600F049
:105010008FFF70BD0A684FF6FE7322F490720A602B
:105020008A68CEF6FF731A408A602022C6F888206C
:105030000022F26632670A6822F010020A6077E006
:105040009F23C4F202039A4230DC7023C4F20203AD
:105050009A423ED0882338E040F29F43C4F20203D4
:105060009A422ADC40F27043C4F202039A4230D0E2
:1050700040F2884329E0D1017FF568AFB0F1FF3FEE
:10508000C8BF70BD3046FFF747FE70BD4023C4F275
:1050900002039A421DD0582317E040F24043C4F265
:1050A00002039A4215D040F258430EE0A023C4F206
:1050B00002039A420DD0B82307E040F2B843C4F28D
:1050C00002039A4205D040F2A043C4F202039A427E
:1050D00001D1F26F12680432126893B2002B3FF4D0
:1050E00035AFB6F85C50AB42BFF430AFA6F85E20E7
:1050F000C269B2F5807F16D00A6822F480720A6015
:105100008A6822F001028A608A6822F040028A607E
:105110002022C6F888200022F2660A6822F01002D7
:105120000A60FCF7C5F8B6F85C00B6F85E10401AE5
:1051300081B23046FFF7ECFD70BD000000000000BA
:1051400010B5B0B10446D0F8840028B9002084F826
:105150008000204600F028F82420C4F8840020684D
:10516000016821F001010160204600F0F1FE0128F4
:1051700001D1012010BDA06A10B1204600F008FE48
:105180002068416821F490414160816821F02A0142
:105190008160016841F001010160204600F068FE75
:1051A00010BD00000000000070B5B6B0044602A8B3
:1051B000BC210026CDE93466CDE932663196FBF795
:1051C00053F944F600012068C4F20001884201D07E
:1051D00036B070BD02A8022502951F96FEF730FA80
:1051E00008B1FBF745FD44F2E0400026C5F6020099
:1051F000816841F480218160816801F480210191FE
:105200000199016841F008010160006831A900F0CE
:105210000800019001984FF44070CDE93105072056
:10522000359040F60040C5F60200CDE93366FDF743
:105230000FFD40F220255820C2F20045C4F20200C2
:1052400028602E2068604020C5E902064FF4806087
:10525000C5E904062846C5E90666C5E90866FDF7FE
:1052600037FA08B1FBF704FD272000210022A567CB
:10527000AC63FDF75DFE2720FDF756FE36B070BD2E
:105280007047000000000000FEE700000000000082
:105290004FF6C0728168C5F6FF7211408160704799
:1052A0004FF6C0728168C6F6FF72114001F180515D
:1052B0008160704700000000806800F0E070704777
:1052C0008068C0F3C00070478068C0F340707047CA
:1052D000806800F0010070478068C0F3007070477C
:1052E0008068C0F38000704780B5C1F3012301F0EE
:1052F0001F01C2F384624FF01F0C00EB83000CFA15
:1053000001F3D0F830E002FA01F12EEA0303194369
:10531000016380BD0000000080B5C1F340634FF021
:10532000070CC1F3045100EB83000CFA01F3D0F831
:1053300014E002FA01F12EEA03031943416180BD32
:1053400080B54FF6FF7ECB43C0F20F0E02F018027D
:10535000D0F8C0C063EA0E032EFA02F203EA0C038F
:1053600011401943C0F8C01080BD000000000000CB
:10537000826822F47C1211438160704700000000B3
:10538000826822F0E07211438160704700000000E3
:10539000036901F01F0123F4F04302FA01F11943FC
:1053A000016170470000000000EB810002F0F8424C
:1053B0001A43016E01F0004111430166704700007D
:1053C00000EB8100016E21F000411143016670473E
:1053D000B0B588B040F2441046F20001C2F200407D
:1053E00000240794C5F60201CDE90544CDE9034444
:1053F000CDE90144C0E90014C0E902440425056177
:105400008482012181614FF4B461047780F83840CF
:1054100041624FF48061C0E90A14C0E90C44FBF713
:10542000BBFD08B1FBF724FC022001A9C0F230400B
:10543000019006200694CDE9020440F2FF708DF839
:105440001D40CDE9040540F24410C2F20040FBF7D4
:1054500017FC08B1FBF70CFC08B0B0BD0000000061
:1054600080B582B044F2D8400022C5F6020001683F
:1054700041F002010160016801F00201019101990E
:10548000016841F0010101600068002100F00100A5
:10549000009000980E20FDF74BFD0E20FDF744FD17
:1054A000382000210022FDF743FD3820FDF73CFDA8
:1054B00002B080BD000000002DE9F04F87B044F23B
:1054C000E0400027C5F602000697CDE90477CDE954
:1054D0000277016840F2004641F004010160016872
:1054E000C5F6020601F0040101910199016841F03D
:1054F000800101600168002201F0800101910199A1
:10550000016841F001010160016844F2010801F005
:10551000010101910199016841F0020101600168F6
:1055200001F0020101910199016841F00801016057
:10553000016801F0080101910199016841F0400101
:105540000160016801F0400101910199016841F099
:1055500010010160006844F2010100F010000190A8
:1055600001983046FDF748FC06F500694FF480616C
:1055700000224846FDF740FC06F54060022100226B
:1055800000904FF0020AFDF737FC06F5806402AD8B
:105590004FF400502946CDE9020720460497FDF755
:1055A00057FB32202946CDE9020A20464FF00B0B6B
:1055B000CDE90477CDF818B0FDF74AFB042002903E
:1055C00000202946C1F21110CDE903072046FDF75E
:1055D0003FFBA6F580648620CDE9020A20462946D5
:1055E000CDE90477CDF818B0FDF732FB30462946F7
:1055F000CDF808804FF00108CDE903870597FDF746
:1056000027FB4FF400502946CDE9020A3046CDF879
:1056100018B0CDE90477FDF71BFB4FF480602946F5
:10562000CDE902084846CDE90477FDF711FB80205B
:105630000290002006F5A056C1F211102946CDE9CE
:1056400003073046FDF704FB4FF4C8502946CDE967
:10565000020A0A2006902046CDE90477FDF7F8FA01
:105660004FF420502946CDE9020A3046CDF818B053
:10567000CDE90477FDF7ECFA00982946CDE902A8B8
:10568000CDE90477FDF7E4FA082000210022FDF7B8
:105690004FFC0820FDF748FC07B0BDE8F08F000084
:1056A00010B584B040F2982041F20001C2F20040EF
:1056B00000240394C4F20001CDE90144C0E90014C0
:1056C00084600A21C1608461FFF7DAF908B1FBF751
:1056D000CFFA2020019040F2982001A9C2F20040A8
:1056E0000394FFF771F908B1FBF7C2FA04B010BDDB
:1056F00080B540F2E42044F60001C2F200404CF6CE
:10570000C072C4F20001C0F26A02C0E900120021B6
:105710000161C0E902110C22C0E90521C0E90711AD
:10572000C0E90911FFF70CFD08B1FBF7A1FA40F23F
:10573000E4200021C2F20040FFF71AFB08B1FBF79A
:1057400097FA40F2E4200021C2F20040FFF7E8FAA5
:1057500008B1FBF78DFA40F2E420C2F20040FFF7F7
:10576000BBFA002808BF80BDFBF782FA80BD0000AD
:10577000FEE7000000000000FEE70000000000005F
:1057800000F007004FF0FF3C80F00703042B28BF18
:105790000423033838BF00200CFA03F399430CFAB2
:1057A00000F301FA00F022EA030108437047000009
:1057B0007047000000000000F0B581B044F22C47B3
:1057C000C5F6020757F8042C02F00302032A02D19F
:1057D000012001B0F0BD054657F82C0C0C4620F016
:1057E000806047F82C0CFDF717FB064657F82C0C89
:1057F000000105D5FDF710FB801B0228F6D964E0F7
:1058000057F8040CEE6895E80E0020F47C30012C6B
:1058100040EA0130A2F101016FF35F214FF47E42B3
:1058200002EB432247F8040C92B24FF0FE4302EB26
:1058300001004FF4FE012A6901EB064101F4FE016B
:1058400003EB0262084402F0FE410844F860386845
:10585000696920F0C00040EA010038603868A96931
:1058600020F0200040EA0100386038684FF6F871F7
:1058700020F0100038603869EA6920EA01004FF42E
:10588000001140EAC2003861386808BF4FF4801147
:1058900040F01000002C386008BF4FF40021386839
:1058A0000843386057F82C0C40F0806047F82C0C07
:1058B000FDF7B2FA044600BF57F82C0C000107D4DC
:1058C000FDF7AAFA001B0328F6D3032001B0F0BDB0
:1058D000002001B0F0BD0000F0B581B044F22C47CB
:1058E000C5F6020757F8042C02F00302032A02D17E
:1058F000012001B0F0BD054657F82C0C0C4620F0F5
:10590000805047F82C0CFDF787FA064657F82C0C08
:10591000800005D5FDF780FA801B0228F6D964E0E7
:1059200057F8040CEE6895E80E0020F07C70012C0E
:1059300040EA0150A2F101016FF35F214FF47E4272
:1059400002EB432247F8040C92B24FF0FE4302EB05
:1059500001004FF4FE012A6901EB064101F4FE014A
:1059600003EB0262084402F0FE41084478613868A3
:10597000696920F4406040EA010038603868A9692C
:1059800020F4007040EA0100386038684FF6F87182
:1059900020F480703860B869EA6920EA01004FF0AD
:1059A000807140EAC200B861386808BF4FF4000156
:1059B00040F48070002C386008BF4FF480013868D4
:1059C0000843386057F82C0C40F0805047F82C0CF6
:1059D000FDF722FA044600BF57F82C0C800007D4CC
:1059E000FDF71AFA001B0328F6D3032001B0F0BD1F
:1059F000002001B0F0BD0000704700000000000072
:105A0000B0B501380024B4EB106F01D00120B0BD57
:105A10004EF210050F21CEF2000568604FF0FF3006
:105A200000F0FAFEAC60072028602046B0BD000000
:105A300080B5FDF7F9F980BDB0B59CB044F6180407
:105A400009A84C21C5F60204FAF70EFD0220002534
:105A5000CDE90755CDE90555CDE90355CDE901550A
:105A6000FDF77AFA0095206840F4404020602068F5
:105A700000F44040009040F22C40C5F60000016860
:105A800041F001010160006800F001000090009801
:105A900020688004FCD54FF610400222CFF6FF703C
:105AA000215862F3010121500120099014907820BF
:105AB000CDE9150204204FF4A021CDE917020C20F6
:105AC000199009A80A91CDE912220024CDE91A44BF
:105AD000FEF766FCA8B93F20019003204FF48061D7
